:020000040800F2
:10000000C0070020ED1E0008A11C0008A31C00086A
:10001000A71C0008AB1C0008AF1C00080000000073
:10002000000000000000000000000000971E000813
:10003000991E0008000000009B1E00089D1E00087D
:10004000071F0008071F0008071F0008071F0008F8
:10005000071F0008071F0008071F0008071F0008E8
:10006000071F0008071F0008071F0008071F0008D8
:10007000071F0008071F0008071F0008071F0008C8
:10008000071F0008071F0008071F0008071F0008B8
:10009000071F0008071F0008071F0008071F0008A8
:1000A000071F0008071F0008071F0008071F000898
:1000B000011D00087B1D0008071F0008071F00081E
:1000C000071F0008071F0008071F0008071F000878
:1000D000071F0008B31C0008071F0008071F0008BF
:1000E000071F0008071F0008071F0008071F000858
:1000F000071F0008071F0008071F0008071F000848
:10010000071F0008071F0008071F0008071F000837
:10011000071F0008071F0008071F0008071F000827
:10012000071F0008071F0008071F0008071F000817
:1001300000F002F800F03AF80AA090E8000C8244BF
:100140008344AAF10107DA4501D100F02FF8AFF29C
:10015000090EBAE80F0013F0010F18BFFB1A43F0A5
:1001600001031847C84F0000E84F0000103A24BFB1
:1001700078C878C1FAD8520724BF30C830C144BF0C
:1001800004680C607047000000230024002500264E
:10019000103A28BF78C1FBD8520728BF30C148BFEA
:1001A0000B6070471FB51FBD10B510BD04F000FBFC
:1001B0001146FFF7F7FF01F05FFB04F01EFB03B4ED
:1001C000FFF7F2FF03BC04F023FB000010B502F0C0
:1001D000B9F94FF4803002F0D5F902F012FA044672
:1001E000012C24D1002002F052FA002002F061FA22
:1001F000A00202F055FA022003F0CCF8102003F020
:10020000DDF84FF4E011200402F024FA012002F09E
:100210002DFA00BF392002F0D8F90028FAD00220C8
:1002200002F027FA00BF02F02DFA0828FBD110BD1A
:1002300010B504460121880302F0F2FA01210520DD
:1002400002F0EEFA4FF48060FE4908800420C87086
:1002500003208870FC4802F027F84FF40070F94939
:1002600008801820C870F84802F01EF8F7480460AB
:100270000820F64988800120C880002008818881F4
:100280000C204881F24802F072FB4FF4A06001F0AC
:100290003DFF2520EF49087000204870887001203C
:1002A000C870084601F037FFE849E94802F05FFBF3
:1002B000012240F22551E64802F0F1FB4021E448DA
:1002C00002F0C9FC0121E24802F0DDFB10BD70B56F
:1002D00005460E4600240CE0295DDD4802F040FC96
:1002E00000BF8021DA4802F0A9FC0028F9D0601C88
:1002F000C4B2B442F0DB70BD10B50121022002F09F
:100300009CFA0121084602F098FAD34803F040FB1A
:1003100040F6C310D1498880232008800020C8807F
:100320004880CD4803F008FC4FF0804003F030FBDC
:1003300042F20F70C949888041F61F4008800020B2
:10034000C88048804FF0804003F0F6FB4FF4A06077
:1003500001F0DCFE1D20BF4908700120487000201C
:1003600088700120C870084601F0D5FE1C20B949EC
:100370000870012048708870C870084601F0CBFEF4
:100380000121880704F0FAF901221146900703F0D1
:100390004AFF0121B04804F0F1F901221146AE48AC
:1003A00003F041FF0121AC4804F022F80121AA48E2
:1003B00003F01EFF0121880703F01AFF10BD00B5EE
:1003C00091B001211D2002F02BFA0121480202F018
:1003D00027FA0121084602F016FA4FF4404002F0D5
:1003E00083F90F20ADF8400000208DF8430010A9DC
:1003F0009B4801F059FF9B4802F0A2FE9A480590E5
:100400009A48069000200790282008900020099024
:1004100080200A9040000B9080000C9020200D90CE
:1004200000020E9000200F9005A98E4802F02AFFCE
:1004300001218C4802F051FF0020009001208DF82E
:1004400004008DF805004FF4602002900020039016
:1004500004208DF81000694683484C3802F06FFC88
:10046000072301220A2180484C3802F000FD0723AF
:1004700002220B217C484C3802F0F9FC07230322AE
:100480000C2179484C3802F0F2FC072304220D219C
:1004900075484C3802F0EBFC012173484C3802F0EF
:1004A00085FC012170484C3802F075FC6E484C38D0
:1004B00002F093FC00BF6C484C3802F093FC00281B
:1004C000F9D169484C3802F097FC00BF66484C38B7
:1004D00002F097FC0028F9D1012163484C3802F062
:1004E0009AFC11B000BD10B54FF4607055490880FA
:1004F000032088701020C870594801F0D5FE802173
:10050000574801F07EFF4FF48071554801F079FFA4
:100510004FF40071524801F074FF10BD10B54FF256
:10052000C33048490880032088701020C8705048A4
:1005300001F0BAFEC02043490880032088701020D3
:10054000C870414801F0B0FE4FF40071484801F016
:100550005AFF4FF48071464801F055FF802144480E
:1005600001F051FF4021424801F04DFF4021364843
:1005700001F049FF8021344801F045FF01213C484A
:1005800001F041FF02213A4801F03DFF4FF4805154
:10059000374801F038FF4FF40051354801F033FF80
:1005A0004FF48041324801F02EFF4FF400413048B3
:1005B00001F029FF10BD2DE9F0474FF0000A00209F
:1005C0002C4908602C4908602C4908602C490860B7
:1005D00000BF29E0254830F81A0026490968084478
:1005E0002449086021490AF1010031F8100022492C
:1005F00009680844204908601C490AF1020031F8E2
:1006000010001E49096808441C49086017490AF18E
:10061000030031F810001A490968084418490860B5
:100620000AF104001FFA80FABAF1280FD2DB114850
:1006300000680A21B0FBF1F0124908800E480068FA
:100640000A2121E014000020000801403C010020A4
:100650000038014018000020000400403001002054
:1006600000100140080002404C240140E00000203E
:10067000000C01401C00002020000020240000206D
:10068000280000202C000020B0FBF1F0F749088082
:10069000F74800680A21B0FBF1F0F6490880F648F7
:1006A00000680A21B0FBF1F0F4490880F449098898
:1006B000A1F1BC0004F04AFA80464FF03332F14B0E
:1006C00004F098FA06460022EF4B04F0E7F80446DF
:1006D00004F0A6F8ED490860E4490988A1F1950005
:1006E00004F034FA80464FF03332E94B04F082FADA
:1006F00006460022E74B04F0D1F8044604F090F8D7
:10070000E5490860DB490988A1F1AD0004F01EFA53
:1007100006460022E14B04F06DFA04460022E04B4D
:1007200004F0BCF8804604F07BF8DE490860D34949
:100730000988A1F1B50004F009FA06464FF06632C7
:10074000D94B04F057FA04460022D84B04F0A6F81F
:10075000804604F065F8D6490860BDE8F0872DE9C9
:10076000F04F87B007460C4615461E46DDF8408020
:100770004FF00009CA46CB46002006900590049031
:1007800003900290019004F0FF0A4FEA142BE8B2A4
:100790000690280A0590F0B20490300A039008F001
:1007A000FF0002904FEA182001902420C1490870F0
:1007B0000E2048703B2088700846C77080F804B04F
:1007C00080F805A0059888710698C871039808728A
:1007D00004984872019888720298C8720846C078D6
:1007E00009790844B34949790844B24989790844E8
:1007F000B049C9790844AF49097A0844AD49497AF2
:100800000844AC49897A0844AA49C97A084400F0E6
:10081000FF09A84880F80C900F20A649487355207E
:1008200088730F21A348FFF752FD07B0BDE8F08F92
:100830002DE9F04104460D460027002624209D495D
:1008400008700E2048703B2088700846C4700571FF
:10085000002048718871C871087248728872C87225
:100860000846C07809790844924949790844914971
:10087000897908448F49C97908448E49097A08441E
:100880008C49497A08448B49897A08448949C97A4C
:100890000844C7B2874807730F208649487355201C
:1008A000887301208449087000BF05E00F2181484A
:1008B000FFF70DFD701CC6B20A2EF7DB00207E4943
:1008C0000870BDE8F08170B50024002500BF01E08C
:1008D000681C85B244F620608542F9DB0024E9E11A
:1008E0007648005D24287DD17449601C085C0E2880
:1008F000F9D1A01C085C3B28F5D1E01C095C6F4ACB
:10090000201D105C0144601D105C0144A01D105CA2
:100910000144E01D105C014404F10800105C014436
:1009200004F10900105C014404F10A00105C014468
:1009300004F10B00105C084461490870114604F191
:100940000C00085C5E4909788842CCD1114604F15C
:100950000D00085C0F28C6D104F10E00085C552874
:10096000C1D1E01C085C022806D0032841D004282D
:100970005CD0052878D18FE10020524908704F499A
:10098000201D085C012809D14F49087000204F49FB
:10099000087001210320FFF74BFF29E04749201D84
:1009A000085C02280AD10020474908700120474905
:1009B000087002210320FFF73BFF19E03F49201D8B
:1009C000085C032814D1601D085C00EB8000400027
:1009D0003F4908803949A01D085C00EB80004000B9
:1009E0003C4900E064E1088003210846FFF720FF4E
:1009F0005DE10120334908703049201D085C012861
:100A000007D101210420FFF713FF012032490870AC
:100A10000BE02A49201D085C022806D1022104208F
:100A2000FFF706FF00202C49087040E1022025490D
:100A300008702249201D085C1B2872D2DFE800F0F4
:100A4000710E50565C62676C72779CC1C7CDD3D96A
:100A5000DFEFF5FBEBEAE9E8E7E6E5004FF40071CC
:100A60001E4801F0CEFC0FE120E100002E00002026
:100A70002400002030000020280000203200002048
:100A80002C00002033D36C400074A44038000020B8
:100A900033736A4000E2A2403C000020001870401E
:100AA00000F0A6404000002066C66B4000C6A34090
:100AB000440000204C0100200C0000208C0000208D
:100AC000020000200A000020080000200900002089
:100AD000340000203600002013000020000C0140EC
:100AE0004FF40071FE4801F08EFCCDE04FF48071B0
:100AF000FB4801F086FCC7E04FF48071F84801F034
:100B000082FCC1E08021F64801F07BFCBCE0802142
:100B1000F34801F078FCB7E04021F14801F071FCA6
:100B2000B2E0B0E04021EE4801F06DFCACE04021C5
:100B3000EC4801F068FC8021EA4801F064FC0121E6
:100B4000E74801F060FC0221E54801F05CFC4FF44D
:100B50008051E34801F057FC4FF40051E04801F0A8
:100B600052FC4FF48041DE4801F04DFC4FF400414F
:100B7000DB4801F048FC87E04021DA4801F041FC05
:100B80008021D84801F03DFC0121D54801F039FC15
:100B90000221D34801F035FC4FF48051D04801F0D8
:100BA00030FC4FF40051CE4801F02BFC4FF4804153
:100BB000CB4801F026FC4FF40041C94801F021FC6C
:100BC00062E04FF48051C64801F01DFC5CE04FF438
:100BD0008051C34801F015FC56E04FF40051C04865
:100BE00001F011FC50E04FF40051BD4801F009FC48
:100BF0004AE04FF48041BA4801F005FC44E04FF46C
:100C00008041B74801F0FDFB3EE037E031E02BE0EA
:100C100025E01FE019E013E00DE006E0FFE74FF4E8
:100C20000041AF4801F0EFFB2EE04FF40041AC482B
:100C300001F0E7FB28E04021AA4801F0E4FB23E0B3
:100C40004021A84801F0DDFB1EE08021A54801F00D
:100C5000DAFB19E08021A34801F0D3FB14E0012165
:100C60009F4801F0D0FB0FE001219D4801F0C9FB36
:100C70000AE002219A4801F0C6FB05E002219848EB
:100C800001F0BFFB00E000BF00BF974A201D115CD0
:100C90000520FFF7CDFD0AE09349201D085C0128DF
:100CA00003D101210620FFF7C3FD00E000BF00BF14
:100CB000601CC4B2232CFFF613AE002404E0002015
:100CC00089490855601CC4B2402CF8DB70BD10B5D2
:100CD0008648007801282AD185490870854800781F
:100CE00068B940217F4801F08CFB4FF480517C486B
:100CF00001F087FB4FF40071794801F082FB7E49D7
:100D00007E48006804F0E0F910D24FF40071744896
:100D100001F079FB4021734801F075FB4FF48051DD
:100D20006F4801F070FB01207249087070E074494F
:100D30007248006804F0C8F82CD8714971480068FE
:100D400004F0C2F826D86E496F48006804F0BCF879
:100D500020D86B496D48006804F0B6F81AD8022113
:100D60000846FFF765FD02210846FFF761FD684868
:100D70000078401C6649087008460078022804DDA7
:100D8000002008700220634908704FF480716248A7
:100D900001F037FB0020574908704FF400715048AC
:100DA00001F031FB4FF480714D4801F02CFB8021A4
:100DB0004B4801F028FB4021494801F024FB402129
:100DC000484801F020FB8021464801F01CFB01212E
:100DD000434801F018FB0221414801F014FB4FF495
:100DE00080513F4801F00FFB4FF400513C4801F0A7
:100DF0000AFB4FF480413A4801F005FB4FF40041F3
:100E0000374801F000FB0020394908704349088049
:100E10003848007801283AD1002034490870354913
:100E200008704FF400712E4801F0EDFA4FF4807114
:100E30002B4801F0E8FA8021294801F0E4FA40212A
:100E4000274801F0E0FA4021264801F0DCFA802131
:100E5000244801F0D8FA0121214801F0D4FA0221F6
:100E60001F4801F0D0FA4FF480511D4801F0CBFA31
:100E70004FF400511A4801F0C6FA4FF48041184867
:100E800001F0C1FA4FF40041154801F0BCFA2348C3
:100E90000088B42817DC22491848006804F014F9C7
:100EA00011D31F491748006804F00EF90BD31C49F1
:100EB0001548006804F008F905D31949134800687B
:100EC00004F002F974D2002016490870164908701F
:100ED00007490870114908804FF40071004825E067
:100EE000000C0140000801408C000020130000208D
:100EF000480000204C0000200000964338000020ED
:100F0000000098413C0000204000002044000020E8
:100F1000500000200A000020001001405200002074
:100F20000000A543090000200800002001F06BFA32
:100F30004FF48071FB4801F066FA8021F94801F016
:100F400062FA4021F74801F05EFA4FF48051F5480B
:100F500001F059FA4FF40051F24801F054FA4FF4FD
:100F60008041F04801F04FFA4FF40041ED4801F0A4
:100F70004AFA4021EC4801F046FA8021EA4801F0A3
:100F800042FA0121E74801F03EFA0221E54801F06A
:100F90003AFA0020E5490870E5490870E54908700B
:100FA000E5490870E5490870E5490870E5490870A9
:100FB00010BD10B5E448007801287DD1E349E4482C
:100FC000006804F081F814D2E049E248006804F0B7
:100FD0007BF80ED2DD49E048006804F075F808D2CD
:100FE000DA49DE48006804F06FF802D20120DC49DB
:100FF0000870DC49D648006804F066F811D9D94970
:10100000D448006804F060F80BD9D649D24800688B
:1010100004F05AF805D9D349D048006804F054F8D0
:1010200070D802210846FFF703FC0020C64908706B
:10103000BE490870CC490870CC490870CC4908708A
:101040004FF40071B74801F0DEF94FF48071B548F4
:1010500001F0D9F98021B34801F0D5F94021B14818
:1010600001F0D1F94FF48051AE4801F0CCF94FF4C2
:101070000051AC4801F0C7F94FF48041A94801F094
:10108000C2F94FF40041A74801F0BDF94021A6483C
:1010900001F0B9F98021A44801F0B5F90121A14876
:1010A00001F0B1F902219F4801F0ADF90020A149FA
:1010B0000870B049087000E010E1AF490870AF490E
:1010C0000870AF490870AF490870AF490870AF4960
:1010D0000870AF490870AF490870A1490870AE495F
:1010E0000880DC20AD490880F020AD490880002050
:1010F000AC4908809C4908709C4908709C4908705C
:101100009149087098480078012874D1994800786E
:1011100030BBA5498E48006803F0D6FE0ED24FF4CE
:101120000071804801F06DF940217F4801F069F9B4
:101130004FF480517B4801F064F916E04FF40071E0
:10114000784801F060F94021774801F05CF94FF4EC
:101150008051744801F055F901208649087004E077
:101160004FF400716F4801F04EF98348007830BBAE
:101170008D497848006803F0A7FE0ED24FF48071C5
:10118000684801F03EF98021674801F03AF94FF4D0
:101190000051644801F035F916E04FF48071614860
:1011A00001F031F98021604801F02DF94FF4005130
:1011B0005C4801F026F901206F49087004E04FF403
:1011C0008071584801F01FF96C48007828BB7649B7
:1011D0006148006803F078FE0ED28021514801F08A
:1011E00010F901214F4801F00CF94FF480414D48AE
:1011F00001F007F915E072E080214A4801F003F997
:101200000121484801F0FFF84FF48041454801F0C2
:10121000F8F801205949087003E08021414801F0A5
:10122000F2F85748007820BB5F494C48006803F04B
:101230004BFE0DD240213B4801F0E3F80221394832
:1012400001F0DFF84FF40041364801F0DAF814E01D
:101250004021344801F0D7F80221324801F0D3F898
:101260004FF400412F4801F0CCF8012044490870A8
:1012700003E040212B4801F0C6F83E4800780128E1
:101280002CD13D4800780128FAD13C48007801284B
:10129000F6D13B4800780128F2D144492C48006837
:1012A00003F012FE1AD241492A48006803F00CFEEE
:1012B000F8D23E492848006803F006FEF2D23B49C6
:1012C0002648006803F000FEECD200202649087092
:1012D000012026490870002025490870B5E22348FE
:1012E000007801281DD127480078C8B92B4800880C
:1012F00003F0D6FD044616480168204603F0E4FEDC
:1013000056D24FF40071074801F07BF8402106489F
:1013100001F077F84FF48051024801F072F87AE05A
:1013200058E079E1000C0140000801400B0000206A
:101330000A000020130000204C0000204D00002077
:101340004E0000204F00002054000020000070419B
:10135000380000203C000020400000204400002015
:101360004800002000009643490000204A00002069
:101370004B0000205A0000205B0000205C00002091
:101380005D0000205E0000205F0000206000002063
:1013900061000020090000205200002034000020DD
:1013A00036000020580000200000484300008C4216
:1013B0004FF40071FE4801F026F84021FD4801F08D
:1013C00022F84FF48051FA4801F01BF80120FA4945
:1013D000087020E0F8480078012817D1F749F8484C
:1013E000006803F071FD11D24FF40071F04801F074
:1013F00008F84021EF4801F004F84FF48051EC4820
:1014000000F0FFFF0220EC49087004E04FF4007187
:10141000E74800F0F8FFEB48007858BBEA4800883E
:1014200003F03EFD0446E9480168204603F04CFE07
:101430000ED24FF48071DE4800F0E3FF8021DD48DA
:1014400000F0DFFF4FF40051D94800F0DAFF32E03E
:101450004FF48071D64800F0D6FF8021D54800F0C7
:10146000D2FF4FF40051D24800F0CBFF0120D54904
:10147000087020E0D3480078012817D1CF49D3481D
:10148000006803F021FD11D24FF48071C84800F0CC
:10149000B8FF8021C74800F0B4FF4FF40051C448A2
:1014A00000F0AFFF0220C749087004E04FF48071DC
:1014B000BF4800F0A8FFC648007848BBC548008870
:1014C00003F0EEFC0446C4480168204603F0FCFD2E
:1014D0000DD28021B64800F094FF0121B44800F0FD
:1014E00090FF4FF48041B24800F08BFF2FE0802145
:1014F000AF4800F088FF0121AD4800F084FF4FF4B1
:101500008041AB4800F07DFF0120B14908701EE02A
:10151000AF480078012816D1A849AF48006803F009
:10152000D3FC10D28021A24800F06BFF0121A0481B
:1015300000F067FF4FF480419D4800F062FF0220F9
:10154000A349087003E08021994800F05CFFA3489C
:10155000007848BB9F48008803F0A2FC0446A048DE
:101560000168204603F0B0FD0DD24021904800F004
:1015700048FF02218E4800F044FF4FF400418C48A0
:1015800000F03FFF2FE04021894800F03CFF02219E
:10159000874800F038FF4FF40041854800F031FFE4
:1015A00001208E4908701EE08C480078012816D171
:1015B00082498B48006803F087FC10D240217C48A8
:1015C00000F01FFF02217A4800F01BFF4FF400419A
:1015D000774800F016FF02208049087003E04021A0
:1015E000734800F010FF74480078022813D1754842
:1015F00000780228FAD1764800780228F6D1774898
:1016000000780228F2D100207649087076490870E7
:1016100001207649087018E17448007801287DD1CE
:101620004102634800F0EFFE4021624800F0E9FE0D
:101630004FF480515E4800F0E4FE4FF480715C4846
:1016400000F0E1FE80215B4800F0DBFE4FF400512A
:10165000574800F0D6FE8021554800F0D4FE012105
:10166000534800F0CEFE4FF48041514800F0C9FECF
:1016700040214F4800F0C7FE02214D4800F0C1FE56
:101680004FF400414A4800F0BCFE594800881E282B
:10169000C1DD02210846FFF7CBF84FF480514448E2
:1016A00000F0B1FE4FF40051414800F0ACFE4FF4A1
:1016B00080413F4800F0A7FE4FF400413C4800F055
:1016C000A2FE40213B4800F09EFE8021394800F0F8
:1016D0009AFE0121364800F096FE0221344800F0BF
:1016E00092FE0020424908803E4908703E49087039
:1016F0003E4908703F4908703F4908803F490870DB
:101700003F4908703F4908703F4908703F490870D9
:10171000294908702B4908702D4900E009E008703C
:101720002E490870DC2028490880F02029490880CB
:101730008BE04FF400711E4800F065FE4FF480719D
:101740001B4800F060FE8021194800F05CFE40213B
:10175000174800F058FE4FF48051154800F053FE32
:101760004FF40051124800F04EFE4FF480411048F3
:1017700000F049FE4FF400410D4800F044FE4021C6
:101780000C4800F040FE80210A4800F03CFE012198
:10179000074800F038FE0221054800F034FE002022
:1017A000134908800F4908700F4908700F492FE04E
:1017B000000C0140000801405E00002000005C4277
:1017C000380000205F000020340000203C00002092
:1017D0006000002036000020400000206100002052
:1017E00044000020490000204A0000204B00002057
:1017F0005800002054000020520000204800002023
:101800005A0000205B0000205C0000205D000020EA
:101810000870FD490870FD490880FD490870FD49C0
:101820000870FD490870FD490870FD490870FD49C0
:101830000870FD490870FD490870FD490870DC20FA
:10184000FC490880F020FC49088010BD10B545F225
:10185000555002F07DF8062002F07DF840F20D3080
:1018600002F07CF802F07DF802F080F810BD4AF634
:10187000AA20F24908607047FEF7A8FC01211D204C
:1018800000F0CEFFFEF72FFEFEF748FEFEF797FDB5
:101890004FF47A30FEF7CCFCFEF72EFD7D2000F0F1
:1018A00094FE08B100F0FAFFFFF7D0FFAAE1FEF7BF
:1018B00082FEE3480078002812DD0020E04908702D
:1018C000FFF7D5FF4FF40071DE4800F08DFDC0F149
:1018D0000100C4B222464FF40071DA4800F095FDD1
:1018E000D948007801282ED101210220FEF7A0FF5F
:1018F0000020C8490870C8490870C8490870C8491C
:101900000870C8490870C8490870C8490870C849B3
:1019100008700120BC4908700020CB4908700120E4
:10192000CA4908700020CA490870CA490870B749F6
:101930000880B7490870C8490880DC20BD49088084
:10194000F020BD490880B1480088FA2803DCC3486C
:10195000007801286ED102210846FEF769FF0020B9
:10196000A9490870BE490870B8490870B84908709C
:10197000B84908704FF40071BA4800F044FD4FF4C4
:101980008071B84800F03FFD8021B64800F03BFD73
:101990004021B44800F037FD4FF48051B14800F0C9
:1019A00032FD4FF40051AF4800F02DFD4FF480415F
:1019B000AC4800F028FD4FF40041AA4800F023FD98
:1019C0004021A94800F01FFD8021A74800F01BFD21
:1019D0000121A44800F017FD0221A24800F013FDE8
:1019E0000020A24908708B4908708B4908708B4908
:1019F00008708B4908708B4908708B4908708B49B7
:101A000008708B49087095490870814908707F49B2
:101A10000880DC2087490880F02087490880002062
:101A20008D4908808949087089490870894908707A
:101A3000754908708E48007810B9FFF7BAFAD6E0F9
:101A40008B480078012802D1FFF741F9CFE08848A0
:101A500000780228F3D187498748006803F034FBF7
:101A600011D984498548006803F02EFB0BD98149C0
:101A70008348006803F028FB05D97E498148006847
:101A800003F022FBDBD800205F490870744908701E
:101A90006E4908706E4908706E4908704FF4007105
:101AA000704800F0B0FC4FF480716E4800F0ABFC61
:101AB00080216C4800F0A7FC40216A4800F0A3FC9C
:101AC0004FF48051674800F09EFC4FF40051654888
:101AD00000F099FC4FF48041624800F094FC4FF410
:101AE0000041604800F08FFC40215F4800F08BFC13
:101AF00080215D4800F087FC01215A4800F083FCFA
:101B00000221584800F07FFC0020584908704149E4
:101B100008704149087041490870414908704149BD
:101B200008704149087041490870414908704B49A3
:101B300008703749087035490880DC203D49088025
:101B4000F0203D4908800020434908803F49087043
:101B50003F4908703F4908702B4908703F49087099
:101B6000394908704FF400713E4800F04CFC4FF4C6
:101B700080713C4800F047FC80213A4800F043FC6B
:101B80004021384800F03FFC4FF48051354800F0C8
:101B90003AFC4FF40051334800F035FC4FF48041DB
:101BA000304800F030FC4FF400412E4800F02BFC90
:101BB00040212D4800F027FC80212B4800F023FC19
:101BC0000121284800F01FFC0221264800F01BFCE0
:101BD00000202349087026490870244908702A49C2
:101BE00008702A4908702A4908702A4908702A484A
:101BF0000078012806D1FEF766FE0020264908700D
:101C00002649087053E600005400002052000020CE
:101C1000480000205A0000205B0000205C000020EB
:101C20005D0000205E0000205F00002060000020BA
:101C30006100002034000020360000200030004009
:101C40006200002000100140080000204900002030
:101C50004A0000204B00002058000020090000200E
:101C60000B000020000C0140000801401300002080
:101C70000A00002000009643380000203C000020AD
:101C800040000020440000204C0000204D000020B7
:101C90004E0000204F000020000000200100002026
:101CA000704700BFFEE700BFFEE700BFFEE700BFD2
:101CB000FEE710B540F22551794800F0D5FFF0B1AC
:101CC00040F22551764800F0F9FF754800F04CFFCE
:101CD0007449754A1278885473480078401C7249D8
:101CE000087008460078022802DD01206F4908705C
:101CF0006D4800783F2802DD00206B49087010BD58
:101D000010B50121880702F03CFD012834D10121E2
:101D1000800702F047FD66480078401C644908705F
:101D200008460078FA2801DD002008706148007834
:101D300001280BD160480088401C5F490880084694
:101D40000088FD2805DDFD20088002E000205A49BA
:101D500008805A48007801280BD159480088401C57
:101D60005749088008460088FD2805DDFD200880C9
:101D700002E000205249088010BD2DE9F8430121FE
:101D8000504802F0FEFC01287ED101214D4802F0AE
:101D900009FD4D48007818B94C480078012878D1E1
:101DA0004B480078002874D14A48006803F020F8B6
:101DB00004460022484B02F0E1FE03D200204549D0
:101DC000086003E0434800684249086043480068EF
:101DD00003F00EF8044600223F4B02F0CFFE03D280
:101DE00000203E49086003E03C4800683B49086029
:101DF0003B48006802F0FCFF04460022364B02F02C
:101E0000BDFE03D200203649086003E03448006874
:101E1000334908603348006802F0EAFF04460022B4
:101E20002D4B02F0ABFE03D200202E49086003E0E8
:101E30002C4800682B4908602B492A48006803F0A9
:101E400077F8804603F00CF884B2274924480068EC
:101E500003F06EF8804603F003F885B222491F486C
:101E6000006803F065F8804602F0FAFF86B21E496A
:101E70001848006803F05CF8804602F0F1FF87B272
:101E80002B463246394600E003E001200094FEF77D
:101E900066FCBDE8F88370477047704770470000E4
:101EA000003801408C0000200100002000000020CC
:101EB0006200002048000020520000204B0000205B
:101EC00058000020000400400A00002054000020B8
:101ED0000C000020380000200000F83F3C000020EB
:101EE00040000020440000200000204109488047B5
:101EF00009480047FEE7FEE7FEE7FEE7FEE7FEE7EC
:101F0000FEE7FEE7FEE7FEE704480549054A064B03
:101F1000704700000B20000831010008C0010020BC
:101F2000C0070020C0030020C00300200CB5002023
:101F3000019000906C48006840F480306A49086065
:101F400000BF6948006800F4003000900198401C10
:101F50000190009818B90198B0F5A06FF1D16248CE
:101F6000006800F4003010B10120009001E0002072
:101F700000900098012843D15C48006840F01000B0
:101F80005A4908600846006820F0030008600846C7
:101F9000006840F0020008605348406852494860B9
:101FA0000846406848600846406840F480604860E1
:101FB0000846406820F47C1048600846406840F4B9
:101FC000E81048600846006840F08070086000BF74
:101FD0004548006800F000700028F9D04248406889
:101FE00020F00300404948600846406840F0020085
:101FF000486000BF3C48406800F00C000828F9D158
:102000000CBD10B5FFF792FF10BD10B53648006843
:1020100040F00100344908600846406834490840EF
:102020003149486008460068324908402E49086036
:102030000846006820F4802008600846406820F4C4
:10204000FE0048604FF41F008860FFF7DAFF4FF092
:1020500000602949086010BD10B500210020002251
:10206000214B5B6803F00C0121B1042906D008293B
:1020700028D107E0214B224C236027E01F4B204C46
:10208000236023E0184B5B6803F47010164B5B6809
:1020900003F48032022303EB904022B9194B4343EF
:1020A000174C23600DE0104B5B6803F4003323B141
:1020B000144B4343124C236003E0104B4343104C3A
:1020C000236003E00D4B0E4C236000BF00BF064BA6
:1020D0005B68C3F303130C4CE15C094B1B68CB40FA
:1020E000074C236010BD0000001002400020024099
:1020F0000000FFF8FFFFF6FE08ED00E000127A0096
:102100006400002000093D006800002031490143BF
:10211000314A1160704770B5002100230F22C47846
:1021200004B32D4C246804F4E064C4F5E064210A8F
:10213000C1F10403CA40447804FA03F184781440DE
:1021400021430901254C0678A155047804F01F05A8
:102150000124AC4005786D11AD0005F1E025C5F80E
:10216000004109E0047804F01F050124AC401C4D37
:102170000678761145F8264070BD1A4A0A40024397
:10218000154B1B1F1A60704739B1134A121D126894
:102190000243114B1B1D1A6006E00F4A121D126804
:1021A00082430D4B1B1D1A607047042808D14FF065
:1021B000E021096941F004014FF0E022116107E0DC
:1021C0004FF0E021096921F004014FF0E022116194
:1021D000704700000000FA050CED00E000E400E0AC
:1021E00080E100E080FFFF1F10B50446CC48844228
:1021F00008D10121042000F02DFB0021042000F073
:1022000029FB46E0C748844208D10121082000F09C
:1022100021FB0021082000F01DFB3AE0C248844267
:1022200008D10121102000F015FB0021102000F042
:1022300011FB2EE0BD48844208D10121202000F08E
:1022400009FB0021202000F005FB22E0B848844271
:1022500008D10121402000F0FDFA0021402000F0CB
:10226000F9FA16E0B348844208D10121802000F039
:10227000F1FA0021802000F0EDFA0AE0AE48844235
:1022800007D10121801500F0E5FA0021A01500F02A
:10229000E1FA10BD10B50121084600F0DBFA00217B
:1022A000012000F0D7FA10BD2DE9F04102460025CB
:1022B0000026002000230024002791F803C00CF022
:1022C0000F0591F803C00CF0100CBCF1000F03D007
:1022D00091F802C04CEA050591F800C0BCF1000F6E
:1022E00031D0146800202BE04FF0010C0CFA00F301
:1022F000B1F800C00CEA03069E4220D183004FF0E3
:102300000F0C0CFA03F7BC4305FA03FC4CEA040477
:1023100091F803C0BCF1280F06D14FF0010C0CFA64
:1023200000FCC2F814C00AE091F803C0BCF1480FE9
:1023300005D14FF0010C0CFA00FCC2F810C0401C93
:102340000828D1D31460B1F800C0BCF1FF0F34DD10
:10235000546800202EE000F1080C4FF0010808FA44
:102360000CF3B1F800C00CEA03069E4221D18300B1
:102370004FF00F0C0CFA03F7BC4305FA03FC4CEAD0
:10238000040491F803C0BCF1280F05D100F1080C3A
:1023900008FA0CF8C2F8148091F803C0BCF1480F99
:1023A00007D100F1080C4FF0010808FA0CF8C2F848
:1023B0001080401C0828CED35460BDE8F0814FF651
:1023C000FF710180022181700421C17070470246B3
:1023D000002093680B400BB1012000E00020704703
:1023E0000146886880B2704702460020D3680B40DF
:1023F0000BB1012000E0002070470146C86880B2A0
:10240000704701617047416170470AB1016100E0A6
:1024100041617047C16070474FF480320A43826166
:102420008161826182698269704702460020434B64
:1024300018684FF68073184040EA021008433F4B7B
:10244000186070473E49C8617047F0B50A460023DE
:1024500000240021002500F00046B6F1004F02D113
:10246000364EF16901E0354E7168C0F3034583B221
:1024700000F44016B6F5401F08D121F070612F4ED0
:10248000766826F070662D4F7E6012E000F48016AC
:10249000B6F5801F06D1032606FA05F4A14341F0E4
:1024A000706106E0460D360103FA06F6B14341F0CD
:1024B000706122B1460D360103FA06F6314300F091
:1024C0000046B6F1004F02D11C4EF16101E01B4EF7
:1024D0007160F0BD30B500228B071C0F0F2303FA8B
:1024E00004F2164B08338C1053F824309343134CEA
:1024F00008348D1044F8253023468C1053F82430CE
:102500008C07240F00FA04F423430C4C08348D107C
:1025100044F8253030BD0A49DC31086070470000BE
:1025200000080140000C014000100140001401406F
:1025300000180140001C0140002001400000014043
:1025400000002042DF48006840F00100DD490860DB
:1025500008464068DC490840DA4948600846006897
:10256000DA490840D74908600846006820F480200E
:1025700008600846406820F4FE0048604FF41F00E1
:1025800088607047CF49096821F48031CD4A1160D5
:102590001146096821F480211160B0F5803F03D015
:1025A000B0F5802F0ED106E0C649096841F48031AC
:1025B000C44A116007E0C349096841F4A021C14A37
:1025C000116000E000BF00BF704710B50146002257
:1025D000002300204A11012A02D1BA4C236806E0E8
:1025E000022A02D1B74C236A01E0B64C636A01F0BB
:1025F0001F02012494401C400CB1012000E0002087
:1026000010BD38B5002000900024002500BF312007
:10261000FFF7DBFF05460098401C00900098B0F5DE
:10262000A06F01D0002DF2D03120FFF7CEFF08B10E
:10263000012400E00024204638BD01460020A14AC4
:10264000106820F0F80040EAC10010607047A0490F
:1026500008607047024600209A4B586820F47C10AE
:1026600042EA01031843974B58607047984908663F
:10267000704701460020934A506820F00300084349
:10268000506070478F48406800F00C00704701466A
:1026900000208C4A506820F0F000084350607047DA
:1026A00001460020874A506820F4E06008435060EB
:1026B000704701460020834A506820F4605040EA89
:1026C000C1005060704729B17E4A527A02437D4B67
:1026D0005A7204E07B4A527A82437A4B5A727047AC
:1026E0007B49D8310860704701460020754A506820
:1026F00020F440400843506070470021714A203266
:102700001170704A82F82010012802D004280AD1E2
:1027100004E001216B4A2032117005E00521694A6D
:102720002032117000E000BF00BF704769490860A7
:1027300070476449096A0143624A116270476549FA
:1027400044390860704730B500210022002400237E
:102750005C4D6D6805F00C0121B1042905D00829F4
:1027600023D105E05C4D056022E05B4D05601FE074
:10277000544D6D6805F47012524D6D6805F4803447
:10278000022505EB92421CB9544D554305600BE000
:102790004C4D6D6805F400351DB1504D5543056035
:1027A00002E04D4D5543056002E04B4D056000BF12
:1027B00000BF444D6D6805F0F0010909484D6B5CA0
:1027C0000568DD4045603F4D6D6805F4E061090A2C
:1027D000434D6B5C4568DD4085603A4D6D6805F49E
:1027E0006051C90A3E4D6B5C4568DD40C560354DA2
:1027F0006D6805F44041890B3A4D6B5CC568B5FBCB
:10280000F3F5056130BD29B12E4A526902432D4BC3
:102810005A6104E02B4A526982432A4B5A6170473D
:1028200029B1284A92690243264B9A6104E0254A5D
:1028300092698243234B9A61704729B1214AD26938
:102840000243204BDA6104E01E4AD26982431D4BE9
:10285000DA61704729B11B4AD2680243194BDA602A
:1028600004E0184AD2688243164BDA60704729B1F7
:10287000144A12690243134B1A6104E0114A1269A7
:102880008243104B1A617047124940390860704703
:102890000F49C86470470B49C87170470948406ABE
:1028A00040F0807007494862704701460020054AA1
:1028B00092680A400AB1012000E0002070470149F7
:1028C00088727047001002400000FFF8FFFFF6FE1C
:1028D000000042428004424200127A0000093D009A
:1028E000780000208800002010B50446FB48844290
:1028F00009D101218803FFF7ADFF00214FF480408B
:10290000FFF7A8FF32E0F648844209D101214804CC
:10291000FFF7ADFF00214FF40030FFF7A8FF25E0DF
:10292000F048844209D101218804FFF7A0FF00216B
:102930004FF48020FFF79BFF18E0EB48844209D159
:102940000121C804FFF793FF00214FF40020FFF797
:102950008EFF0BE0E548844208D101210805FFF70E
:1029600086FF00214FF48010FFF781FF10BD2DE995
:10297000F04786B005460E460024A24600BFA14699
:102980000027B08900B100BF2F462C8A4CF6FF709B
:102990000440F08804432C82AC894EF6F3100440C6
:1029A000B08831890843718908430443AC81AC8AFB
:1029B0004FF6FF400440B0890443AC8201A8FFF702
:1029C000C2FEC648874202D1DDF810A001E0DDF862
:1029D0000CA0A88900F4004040B10AEBCA0000EB4B
:1029E0000A1031684900B0FBF1F807E00AEBCA00B1
:1029F00000EB0A1031688900B0FBF1F86420B8FBE5
:102A0000F0F004012009642101FB1089A88900F479
:102A1000004040B1322000EBC900B0FBF1F000F003
:102A20000700044308E0322000EB09106421B0FBEA
:102A3000F1F000F00F0004432C8106B0BDE8F087F0
:102A40004FF41651016000218180C18001810C2169
:102A5000418100218181704710B502460020108A13
:102A60004FF2FF0318400B884C8823438C88234384
:102A7000CC8823431843108210BD0021018041807F
:102A80008180C180704721B1828942F400528281E5
:102A900004E082894DF6FF731A4082817047F0B5D9
:102AA0000346002400260025002040F66A17B9429C
:102AB00000D100BF1846C1F3421401F01F060127E0
:102AC00007FA06F5012C01D10C3004E0022C01D1EB
:102AD000103000E014301AB107682F43076002E09D
:102AE0000768AF430760F0BD1AB1838A0B43838246
:102AF00002E0838A8B4383827047028A4FF6F07329
:102B00001A400282028A0A430282704782894FF287
:102B1000FF731A40828182890A438281704721B102
:102B2000828942F00202828104E082894FF6FD73BD
:102B30001A4082817047028A4FF6DF731A40028280
:102B4000028A0A430282704721B1028A42F480421B
:102B5000028204E0028A4BF6FF731A400282704739
:102B6000C1F308028280704701468888C0F30800DC
:102B70007047818941F0010181817047028BD2B297
:102B80000283028B42EA012202837047028B02F425
:102B90007F420283028B0A430283704721B1828AFB
:102BA00042F02002828204E0828A4FF6DF731A40EC
:102BB0008282704721B1828A42F01002828204E050
:102BC000828A4FF6EF731A408282704721B1828A5F
:102BD00042F00802828204E0828A4FF6F7731A40BC
:102BE0008282704721B1828942F40042828103E0EF
:102BF0008289C2F30E028281704721B1828A42F437
:102C00000062828204E0828A4FF2FF731A4082825D
:102C10007047828A4FF6FB731A408282828A0A4387
:102C20008282704721B1828A42F00202828204E0ED
:102C3000828A4FF6FD731A40828270470246002056
:102C4000B1F5007F00D100BF13880B400BB101200C
:102C500000E00020704701F40072B2F5007F00D15F
:102C600000BFCA430280704770B5024600240023AB
:102C70000025002040F66A16B14200D100BFC1F322
:102C8000421501F01F03012606FA03F3012D02D1BC
:102C90009689334006E0022D02D1168A334001E0C6
:102CA000968A33400C12012606FA04F41688344042
:102CB00013B10CB1012000E0002070BD10B500225E
:102CC000002340F66A14A14200D100BF0A12012479
:102CD0009440A3B2DC43048010BD000000380140E2
:102CE0000044004000480040004C004000500040BC
:102CF00010B50446FA48844208D101214015FFF777
:102D0000A9FD00216015FFF7A5FD17E0F5488442F5
:102D100008D101210015FFF79DFD00212015FFF7C7
:102D200099FD0BE0F048844208D10121C803FFF768
:102D300091FD00214FF40040FFF78CFD10BD30B530
:102D40000246002000235068E84C20400D790C68B2
:102D500044EA0524204350609068E54C2040D1E9C6
:102D600002542C434D7944EA450420439060D06AD4
:102D700020F470000C7C641EE4B2234340EA03504C
:102D8000D06230BD00210160017141718160C1607C
:102D900001210174704721B1826842F00102826012
:102DA00003E0826822F001028260704721B18268EC
:102DB00042F48072826003E0826822F48072826052
:102DC000704710B50023CBB21AB144681C4344606D
:102DD00002E044689C43446010BD816841F00801F2
:102DE00081607047014600208A6802F008020AB13B
:102DF000012000E000207047816841F004018160FB
:102E00007047014600208A6802F004020AB10120DE
:102E100000E00020704721B1826842F4A002826085
:102E200003E0826822F4A00282607047014600201D
:102E30008A6802F480020AB1012000E00020704795
:102E400010B50A4600210023416821F46041531E59
:102E500041EA4331416010BD21B1426842F4006251
:102E6000426003E0426822F4006242607047F0B5BD
:102E700004460D4600200021092D11DDE068A5F172
:102E80000A0606EB4607072606FA07F18843A5F16E
:102E90000A0606EB460603FA06F10843E0600CE07A
:102EA000206905EB4507072606FA07F1884305EB7D
:102EB000450603FA06F108432061072A0FDA606B22
:102EC000561E06EB86071F2606FA07F18843561E94
:102ED00006EB860605FA06F10843606322E00D2A38
:102EE0000FDA206BD61F06EB86071F2606FA07F1BE
:102EF0008843D61F06EB860605FA06F108432063D1
:102F000010E0E06AA2F10D0606EB86071F2606FA1E
:102F100007F18843A2F10D0606EB860605FA06F1D5
:102F20000843E062F0BD21B1826842F48012826001
:102F300003E0826822F48012826070470146C86C08
:102F400080B2704766484C300068704721B14268D3
:102F500042F48062426003E0426822F48062426090
:102F6000704721B1426842F48052426003E04268F7
:102F700022F48052426070470A460021816821F4A1
:102F8000E04111438160704721B1826842F4004200
:102F9000826003E0826822F400428260704721B1BF
:102FA000826842F40212826003E0826822F4021214
:102FB00082607047014600208A6802F400120AB15C
:102FC000012000E000207047F0B5044615460020BF
:102FD00000220026092911DDE068A1F10A0707EBAC
:102FE000470C072707FA0CF29043A1F10A0707EBF9
:102FF000470703FA07F21043E0600CE0206901EB99
:10300000410C072707FA0CF2904301EB410703FA42
:1030100007F210432061A06BC0F30156EF1C06F1CC
:10302000010CA7EB0C0707EB870C1F2707FA0CF224
:103030009043EF1C06F1010CA7EB0C0707EB870789
:1030400001FA07F21043A063F0BD10B50A46002153
:103050000023816B21F44011531E41EA0351816327
:1030600010BD08B5002300930090009B0B44009313
:10307000009B1A6008BD08B502460020009000922F
:1030800001F12800009B184400900098006880B26D
:1030900008BD0A4600214168164B194011434160A2
:1030A00070474162826270470A460021416821F000
:1030B0001F0111434160704740B109490831096857
:1030C00041F40001064A0832116007E00449083162
:1030D000096821F40001024A0832116070470000BB
:1030E0000024014000280140003C0140FFFEF0FFA9
:1030F000FDF7F1FFFFFD3FFF0246002013680B4084
:103100000BB1012000E000207047CA430260704705
:1031100070B502460020002300240B125568CEB281
:1031200005EA060415681D4015B10CB1012000E048
:10313000002070BD00220A12D343036070470000D4
:1031400001684FF6FE72114001600021016041608C
:103150008160C1608D49884208D18C49083949682D
:1031600041F00F01894A083A51608AE087491431D9
:10317000884208D185490839496841F0F001834AFD
:10318000083A51607DE081492831884208D17F4961
:103190000839496841F470617C4A083A516070E02E
:1031A0007A493C31884208D178490839496841F464
:1031B0007041764A083A516063E074495031884260
:1031C00008D172490839496841F470216F4A083AB8
:1031D000516056E06D496431884208D16B49083925
:1031E000496841F47001694A083A516049E0674909
:1031F0007831884208D165490839496841F07061E1
:10320000624A083A51603CE06149884206D1011F98
:10321000096841F00F01021F116032E05C4914316E
:10322000884208D15A49091F096841F0F001584AFB
:10323000121F116025E056492831884208D15449AF
:10324000091F096841F47061514A121F116018E0AA
:103250004F493C31884208D14D49091F096841F462
:1032600070414B4A121F11600BE0494950318842AE
:1032700007D14749091F096841F47021444A121FC8
:103280001160704710B50022026847F6F0739A4348
:103290000C6A8B6823430C6923434C6923438C6974
:1032A0002343CC6923434C6A23438C6A23431A4348
:1032B0000260CB6843600B6883604B68C36010BDDD
:1032C0000021016041608160C160016141618161F3
:1032D000C161016241628162704721B1026842F0BE
:1032E0000102026004E002684FF6FE731A400260B9
:1032F00070471AB103680B43036002E003688B4315
:1033000003607047416070470146486880B270476B
:1033100001460020002201F080531BB11C4B083BEA
:103320001A6802E0194B083B1A6802EA01030BB164
:10333000012000E00020704700F0805119B11449CD
:10334000091F086002E011490839486070470146CA
:103350000020002201F080531BB10D4B083B1A687E
:1033600002E00A4B083B1A6802EA01030BB1012094
:1033700000E00020704700F0805119B10449091F96
:10338000086002E0014908394860704708000240BF
:103390000804024001460020FE4A106800F0380090
:1033A000084310607047FB49096821F00801F94A99
:1033B000116011460968014311607047F5490968B9
:1033C00021F01001F34A11601146096801431160B0
:1033D0007047F148EF494860F04848607047EE4850
:1033E000EC494860ED4848607047EA48006940F0A1
:1033F0008000E84908617047E648006940F08000B5
:10340000E449086170470420E249C96801F00101FC
:1034100009B101200EE0DF49C96801F0040109B1DA
:10342000022007E0DB49C96801F0100109B103205F
:1034300000E00420704700B502460423FFF7E3FFD5
:10344000034603E0FFF7DFFF0346521E012B01D1C5
:10345000002AF7D102B90523184600BD30B504464D
:1034600004254FF43020FFF7E6FF0546042D17D161
:10347000C848006940F00200C64908610846446136
:10348000006940F0400008614FF43020FFF7D3FF9F
:103490000546C048006941F6FD710840BD49086114
:1034A000284630BD10B504244FF43020FFF7C3FF89
:1034B0000446042C16D1B748006940F00400B54911
:1034C00008610846006940F0400008614FF4302070
:1034D000FFF7B1FF0446AF48006941F6FB710840B1
:1034E000AC490861204610BD00B502460423FFF731
:1034F0008AFF034603E0FFF786FF0346521E012BB7
:1035000001D1002AF7D102B90523184600BD10B534
:1035100004244FF43020FFF7E7FF0446042C16D1B3
:103520009C48006940F004009A4908610846006917
:1035300040F0400008614FF43020FFF7D5FF04460B
:103540009448006941F6FB710840924908612046A1
:1035500010BD00208F49C96901F0020109B10120A5
:1035600000E00020704730B5A5250424FFF7F1FFE7
:1035700000B100254FF43020FFF75DFF0446042C16
:103580003AD1854883498860844888600846006944
:1035900040F0200008610846006940F040000861E2
:1035A0004FF43020FFF747FF0446042C1BD1794825
:1035B000006941F6DF7108407649086108460069F4
:1035C00040F01000086176480580E002FFF733FF05
:1035D0000446052C10D06F48006941F6EF71084091
:1035E0006C49086108E0052C06D06A48006941F67C
:1035F000EF71084067490861204630BD78B506463E
:103600000C46042500200090E802FFF714FF054651
:10361000042D24D15F48006940F001005D49086134
:103620003480E802FFF707FF0546042D10D1B01CD7
:103630000090200C00990880E802FFF7FCFE054688
:103640005448006941F6FE7108405249086106E09D
:103650005048006941F6FE7108404E49086128460D
:1036600078BD70B504460D460426F002FFF7E3FE70
:103670000646042E11D14748006940F00100454933
:1036800008612580F002FFF7D6FE06464148006932
:1036900041F6FE7108403F490861304670BD70B583
:1036A00005460E460424E002FFF7C5FE0446042C3E
:1036B00017D139483749886038488860084600691A
:1036C00040F0100008612E80E002FFF7B4FE0446CF
:1036D000052C06D02F48006941F6EF7108402D49AE
:1036E0000861204670BD2DE9F04304464FF6FF7691
:1036F0003746B046B1460425E443E6B2C4F3072793
:10370000C4F307484FEA1469E802FFF794FE054640
:10371000042D49D120481F49886020488860084608
:10372000006940F010000861FF2E06D01C480830E8
:103730000680E802FFF77FFE0546042D08D1FF2F23
:1037400006D017480A300780E802FFF774FE0546E6
:10375000042D0AD1B8F1FF0F07D011480C30A0F8A2
:103760000080E802FFF767FE0546042D0AD1B9F193
:10377000FF0F07D00A480E30A0F80090E802FFF7CC
:103780005AFE0546052D0FD00248006941F6EF713B
:10379000084007E00020024023016745AB89EFCDD8
:1037A00000F8FF1F664908612846BDE8F08330B580
:1037B000054604244FF43020FFF73DFE0446042C58
:1037C00041D160485E4988605F488860084600696A
:1037D00040F0200008610846006940F040000861A0
:1037E0004FF43020FFF727FE0446042C22D1544822
:1037F000006941F6DF7108405149086108460069D7
:1038000040F0100008611DB100205049088002E01E
:10381000A5204E4908804FF43020FFF70CFE0446E7
:10382000052C10D04648006941F6EF710840444924
:10383000086108E0052C06D04148006941F6DF71B7
:1038400008403F490861204630BDF0B505460E46A8
:10385000174604243B483A4988603B488860E002A8
:10386000FFF7E9FD0446042C19D13548006940F002
:1038700010003349086147F0F800304328433349CA
:10388000891C0880E002FFF7D6FD0446052C06D00F
:103890002B48006941F6EF7108402949086120462C
:1038A000F0BD2748C069800870472548006A704706
:1038B00000202349096801F0200109B1012000E03E
:1038C0000020704729B11E4A126902431C4B1A613D
:1038D00004E01B4A12698243194B1A617047014682
:1038E0000020012908D1164AD26902F001020AB16A
:1038F000012008E0002006E0114AD2680A400AB11F
:10390000012000E0002070470D49C8607047042086
:103910000B49C96801F0010109B101200EE0084915
:10392000C96801F0040109B1022007E00449C9682F
:1039300001F0100109B1032000E0042070470000ED
:103940000020024023016745AB89EFCD00F8FF1F3F
:103950000E49086070470D49486070470B49886000
:1039600070474AF6AA200949086070474CF6CC40D7
:1039700006490860704701460020044AD2680A40A0
:103980000AB1012000E00020704700000030004034
:1039900010B50446FE48844208D10121C014FEF748
:1039A00059FF0021E014FEF755FFC4E0B4F1804F49
:1039B00008D101210846FEF75AFF00210120FEF739
:1039C00056FFB8E0F348844208D101210220FEF7F7
:1039D0004EFF00210220FEF74AFFACE0EE48844291
:1039E00008D101210420FEF742FF00210420FEF748
:1039F0003EFFA0E0E948844208D101210820FEF7FB
:103A000036FF00210820FEF732FF94E0E4488442AC
:103A100008D101211020FEF72AFF00211020FEF717
:103A200026FF88E0DF48844208D101212020FEF7EC
:103A30001EFF00212020FEF71AFF7CE0DA488442B6
:103A400008D101214014FEF705FF00216014FEF7A4
:103A500001FF70E0D548844209D10121C804FEF776
:103A6000F9FE00214FF40020FEF7F4FE63E0D04899
:103A7000844209D101210805FEF7ECFE00214FF434
:103A80008010FEF7E7FE56E0CA48844209D10121C2
:103A90004805FEF7DFFE00214FF40010FEF7DAFEC6
:103AA00049E0C548844208D101214020FEF7DFFEED
:103AB00000214020FEF7DBFE3DE0C048844208D1F3
:103AC00001218020FEF7D3FE00218020FEF7CFFEEB
:103AD00031E0BB48844208D101218015FEF7C7FEC2
:103AE0000021A015FEF7C3FE25E0B648844209D1A7
:103AF00001210804FEF7AEFE00214FF48030FEF7EE
:103B0000A9FE18E0B048844209D101214804FEF71B
:103B1000A1FE00214FF40030FEF79CFE0BE0AB4805
:103B2000844208D101218804FEF794FE00214FF45D
:103B30008020FEF78FFE10BD00220288944B984231
:103B40000ED0994B98420BD0B0F1804F08D0914BDA
:103B5000984205D0904B984202D0904B984204D1A5
:103B60004FF68F731A404B881A438D4B984207D0FB
:103B70008C4B984204D04FF6FF431A40CB881A432F
:103B800002808B8883850B880385814B98420BD0FC
:103B9000854B984208D08B4B984205D08A4B98426F
:103BA00002D08A4B984201D10B7A0386012383828B
:103BB000704770B5002400220023058C4FF6FE7676
:103BC00035400584028C8388048B4FF68F752C401A
:103BD000B51E2C400D882C43751E2A400D892A43A2
:103BE0004D882A436A4DA8420BD06F4DA84208D099
:103BF000744DA84205D0744DA84202D0734DA8421E
:103C000013D14FF6F7752A404D892A434FF6FB75BD
:103C10002A408D882A434FF6FF652B404FF6FF550B
:103C20002B408D892B43CD892B4383800483CD8802
:103C30008586028470BD70B5002400220023058CA7
:103C40004FF6EF7635400584028C8388048B48F666
:103C5000FF752C404FF6FF452C400D884FF6FF7640
:103C600006EA05252C434FF6DF752A400D8906EA42
:103C700005152A434D8806EA05152A43444DA842F6
:103C800002D0494DA8421DD14FF67F752A404D897B
:103C90004FF6FF7606EA05152A434FF6BF752A4010
:103CA0008D8806EA05152A434FF6FF352B404FF263
:103CB000FF752B408D8906EA85052B43CD8906EAE1
:103CC00085052B4383800483CD880587028470BDDE
:103CD00070B5002400220023058C4FF6FF663540A6
:103CE0000584028C8388848B4FF68F752C404FF6A9
:103CF000FC752C400D882C434FF6FF552A400D894A
:103D00004FF6FF7606EA05252A434D8806EA052583
:103D10002A431F4DA84202D0234DA8421DD14FF285
:103D2000FF752A404D894FF6FF7606EA05252A439E
:103D30004FF6FF352A408D8806EA05252A434EF6C0
:103D4000FF752B404DF6FF752B408D8906EA051552
:103D50002B43CD8906EA05152B4383808483CD88C8
:103D60008587028470BD70B5002200230024058C75
:103D70004EF6FF7635400584038C8488828B48F6A6
:103D8000FF752A404FF6FF452A400D8820E00000CD
:103D9000002C01400004004000080040000C0040DE
:103DA000001000400014004000340140004C01406D
:103DB000005001400054014000180040001C004029
:103DC0000020004000400140004401400048014004
:103DD0004FF6FF7606EA05252A434DF6FF752B4080
:103DE0000D8906EA05352B434D8806EA05352B4338
:103DF000FA4DA84202D0FA4DA84208D14BF6FF7501
:103E00002C408D894FF6FF7606EA85152C43848079
:103E10008283CD88A0F84050038470BD828B4FF21E
:103E2000FF331A408283828B4FF6FF7303EA01232C
:103E30001A4382837047F0B50C46154600220021D4
:103E40000026078C4EF6FF7C07EA0C070784828B5E
:103E5000018C4FF6FF7707EA043640F6FF473A40F9
:103E60004FF6FF7707EA05273A434FF6FF7707EA51
:103E700003373A43D94FB8420ED0D94FB8420BD08E
:103E8000B0F1804F08D0D74FB84205D0D64FB842D6
:103E900002D0D64FB84206D14DF6FF77394046F4EE
:103EA0008057394305E047F6FF57394044F48057BF
:103EB000394382830184F0BD828B4FF6F3731A403D
:103EC0008283828B0A4382837047F0B50C46154685
:103ED000002200210026078C4FF6FF6C07EA0C0732
:103EE0000784828B018C4FF6FF7707EA04264FF692
:103EF0000C773A404FF6FF7707EA03172F433A4310
:103F0000B64FB8420ED0B64FB8420BD0B0F1804F8A
:103F100008D0B44FB84205D0B34FB84202D0B34F27
:103F2000B84206D14FF6FF57394046F480773943FF
:103F300005E04FF2FF57394044F4807739438283DC
:103F40000184F0BD028B4FF2FF331A400283028BD3
:103F50004FF6FF7303EA01231A4302837047F0B55B
:103F60000C461546002200210026078C4FF6EF7CF8
:103F700007EA0C070784028B018C4FF6FF7707EAEC
:103F8000041640F6FF473A404FF6FF7707EA03373B
:103F90003A434FF6FF7707EA05273A438F4FB84277
:103FA0000ED08F4FB8420BD0B0F1804F08D08D4F5C
:103FB000B84205D08C4FB84202D08C4FB84206D1DF
:103FC0004FF6DF77394046F01007394305E04FF6EA
:103FD0005F77394044F01007394302830184F0BD14
:103FE000028B4FF6F3731A400283028B0A4302835B
:103FF0007047F0B50C46154600220021068C4FF69E
:10400000FE773E400684028B018C4FF60C763240E0
:104010007E1C06EA03162E433243704EB0420ED089
:104020006F4EB0420BD0B0F1804F08D06D4EB04211
:1040300005D06D4EB04202D06C4EB04206D14FF664
:10404000FD76314044F00106314305E04FF6F57648
:10405000314044F00106314302830184F0BD70B564
:1040600005460C465D4885420ED05D4885420BD022
:10407000B5F1804F08D05B48854205D05A4885424B
:1040800002D05A48854200D100E000BF208850B9D4
:104090002389A28861882846FFF7ABFFE18828467C
:1040A000FFF79EFF25E0208804280AD12389A288F3
:1040B00061882846FFF753FFE1882846FFF742FF53
:1040C00017E0208808280AD12389A2886188284619
:1040D000FFF7FBFEE1882846FFF7EEFE09E02389A3
:1040E000A28861882846FFF7A6FEE1882846FFF7E8
:1040F00095FE70BD2DE9F04105460C4600260127CE
:10410000608808B9022600E00026A088012801D1B5
:10411000022700E001272088A0B92389A2886188AE
:104120002846FFF766FFE1882846FFF759FF2389F5
:104130003A4631462846FFF712FFE1882846FFF746
:1041400001FF13E02389A28861882846FFF707FF53
:10415000E1882846FFF7F6FE23893A46314628468D
:10416000FFF747FFE1882846FFF73AFFBDE8F081F7
:104170000A884B881A438B881A43CB881A430B89C9
:104180001A434B891A438B891A43A0F8442070477D
:104190004FF6FF71818000210180C1804180017252
:1041A00070470021018041808180C180018141816F
:1041B0008181C1817047002101804180012181807E
:1041C0000021C180018170470021018041808180F0
:1041D000C18001814181818170470000002C014034
:1041E000003401400004004000080040000C004082
:1041F00021B1028842F00102028004E002884FF6F9
:10420000FE731A400280704731B1B0F8442042F486
:104210000042A0F8442005E0B0F84420C2F30E02AA
:10422000A0F8442070471AB183890B43838102E0D0
:1042300083898B43838170478182704741EA0203FF
:10424000A0F8483070471AB183890B43838102E09C
:1042500083898B438381704701894FF6F87211403F
:10426000018170470A46002101894FF68F7319407A
:1042700011430181704730B504460D46294620465A
:10428000FFF7F0FF208940F00700208130BD2DE9C5
:10429000F04104460D4616461F46602D06D13B46AA
:1042A000012231462046FFF75AFE05E03B46012237
:1042B00031462046FFF79DFE29462046FFF7D2FFF4
:1042C000208940F007002081BDE8F08130B50C4620
:1042D00000210189C9B24FF6FF7505EA0325154390
:1042E00025432943018130BD2DE9F04105460E46A5
:1042F00017469846002443463A4631462846FFF77B
:10430000E5FF2C894FF6F870044044F007044FF69F
:104310008F70044044F070042C81BDE8F081F0B54A
:1043200004460D4616461F463B4632462946204661
:10433000FFF7CCFF208940F480402081F0BD01854B
:10434000828270470A46002101884FF68F73194018
:10435000114301807047F0B50C4615461E460021FA
:10436000002200230189028B038C4FF6F877394035
:1043700021434FF6FC473A4040F201173A434FF6CB
:10438000DD773B404FF6FF7707EA06172F433B43A5
:10439000018102830384F0BD0A460021018B4FF6A0
:1043A0008F7319401143018370470A460021018B26
:1043B00048F6FF7319404FF6FF7303EA02231943CF
:1043C000018370470A460021818B4FF68F73194095
:1043D0001143818370470A460021818B48F6FF73A1
:1043E00019404FF6FF7303EA022319438183704794
:1043F00021B1028842F08002028004E002884FF678
:104400007F731A400280704721B1828842F0040213
:10441000828004E082884FF6FB731A4082807047E6
:1044200021B1828842F00802828004E082884FF63F
:10443000F7731A408280704721B1828842F00102EE
:10444000828004E082884FF6FE731A4082807047B3
:104450000A460021018B4FF6F7731940114301837F
:1044600070470A460021018B4FF2FF7319404FF647
:10447000FF7303EA02231943018370470A460021B0
:10448000818B4FF6F77319401143818370470A46B9
:104490000021818B4FF2FF7319404FF6FF7303EA3F
:1044A00002231943818370470A460021018B4FF68E
:1044B000FB7319401143018370470A460021018BA9
:1044C0004FF6FF3319404FF6FF7303EA02231943F7
:1044D000018370470A460021818B4FF6FB73194018
:1044E0001143818370470A460021818B4FF6FF33C9
:1044F00019404FF6FF7303EA022319438183704783
:104500000A460021018B4FF67F7319401143018346
:1045100070470A460021018BC1F30E014FF6FF736D
:1045200003EA02231943018370470A460021818B65
:104530004FF67F7319401143818370470A4600216B
:10454000818BC1F30E014FF6FF7303EA0223194377
:10455000818370470A460021018C4FF6FD73194094
:104560001143018470470A460021018C4FF6F7730E
:1045700019401143018470470A460021018C4FF60F
:10458000DF7319404FF6FF7303EA021319430184E6
:1045900070470A460021018C4FF67F7319404FF691
:1045A000FF7303EA02131943018470470A4600218E
:1045B000018C4FF6FF5319404FF6FF7303EA0223B5
:1045C0001943018470470A460021018C4FF2FF73A2
:1045D00019404FF6FF7303EA022319430184704721
:1045E0000A460021018C4DF6FF7319404FF6FF7308
:1045F00003EA023319430184704730B500230124D4
:104600008C40A3B2048C9C430484048C02FA01F510
:10461000ADB22C43048430BD30B5002304248C405B
:10462000A3B2048C9C430484048C02FA01F5ADB25D
:104630002C43048430BD70B5034600200024184686
:10464000183001258D40ACB21D8CA5431D8409B1E5
:10465000082909D100EB6100056825F070050560A7
:104660000568154305600EE00D1FC5F34E0528448F
:10467000056825F4E045056005684FF6FF7606EA13
:1046800002263543056070BD21B1028842F0020266
:10469000028004E002884FF6FD731A4002807047E2
:1046A00021B1028842F00402028004E002884FF641
:1046B000FB731A400280704721B1828842F0800269
:1046C000828004E082884FF67F731A4082807047B0
:1046D00002884FF6F7731A40028002880A4302806C
:1046E000704782884FF68F731A40828082880A430F
:1046F0008280704702894FF6F8731A40028102895E
:104700000A430281704702894FF67F731A40028183
:1047100002890A430281704781847047818570470E
:10472000818670470187704781877047A0F84010E5
:10473000704702884FF6FF431A40028002880A43FE
:10474000028070470146888E70470146088F704787
:104750000146888F70470146B1F840007047014616
:10476000888C70470146088D704702460020138AE6
:104770000B400BB1012000E000207047CA430282C9
:10478000704730B50246002000230024158A05EA50
:104790000103958905EA010413B10CB1012000E081
:1047A000002030BDCA43028270477047704770478F
:1047B000754600F029F8AE4605006946534620F0DC
:1047C0000700854618B020B5FDF79EFBBDE82040E8
:1047D0004FF000064FF000074FF000084FF0000BBD
:1047E00021F00701AC46ACE8C009ACE8C009ACE870
:1047F000C009ACE8C0098D4670470446AFF300809D
:104800002046FBF7DCFC00000048704760010020F8
:1048100001491820ABBEFEE72600020070470000E9
:1048200021F00042A2F16052B2F5801F01F0004376
:1048300028BFD2F17F6C0BD95FEA001C43EAC202A9
:1048400042EB507018BF704728BF20F0010070473E
:10485000B2F5801FBCBF184670474FEA410C1CF5EB
:10486000001F02D2084600F02ABC70B500F06CFAB6
:1048700000000089FFF7F6BF4FF00040A0F5800070
:104880007047491058BFC1F140415B1058BFC3F198
:1048900040438B42EFF30080704700002DE9C04198
:1048A00030B4DFF8A0C23CEA111418BF3CEA13147C
:1048B00000F0EC8081EA03051CEA111444EAD57487
:1048C00018BF1CEA131500F0C780A4EB05044FF0D5
:1048D000004545EAC12145EAC32341EA505143EA74
:1048E000525304F17F74994204F500344FEAC0201A
:1048F0004FEAC22208BF904200F09C804FEA136545
:104900000FF24016765D4FEA134506FB05F7C7F137
:10491000807706FB07F74FEAD737A7FB0368764295
:10492000C8F58038A7FB06CE38BFA8F1010807FB01
:1049300008E64FF0000EA6FB028CE6FB03CEDCF18E
:10494000000CCEF1004E38BFAEF1010EA6FB0C58A4
:104950004FF000074FF00005E6FB0E87A1FB08C6ED
:10496000A0FB07CE16EB0E0645F10005E1FB07653F
:1049700015F1E04E7EBFA4F580345FEA46066D4136
:1049800016F1800745F100054FEA17274FEA066642
:1049900047EA0567A6F1DE46B6F1805F4FEA1525C6
:1049A0001FD9384624F0010C05EBC471BCF1FE6F31
:1049B00001EB0C1102D8F0BCBDE8008124425CBFC1
:1049C00001F5801E9EEAC47F02D4F0BCBDE80081E0
:1049D000244238D4F0BCA1F1C041BDE8004100F050
:1049E00001BA4FEAD22242EA43524FEAD323A7FB4D
:1049F00002864FEAD02040EA415007FB03661EEAD8
:104A00000E0F4FEAD12105FB026658BFA6EB0056F8
:104A1000B6EB00564FEA520E4EEAC37E18EB0E0E6E
:104A200056EB530EBDD518EB02085E417F1C55F1C5
:104A30000005B6E74FF480154FF000074FF0000671
:104A40004FF00008ADE7F0BC4FF0000001F1C041AD
:104A500001F00041BDE8008111EA0C1F0CEA1315BA
:104A600000D00CE013EA0C1F00F025804FF000008E
:104A7000F0BC81EA030101F00041BDE80081F0BC17
:104A8000BDE8004181EA030100F0ACB9F0BCBDE82B
:104A9000004170B500F058F9097EFC3E00F007B8FF
:104AA00081EA03014FF0000001F00041704781EA04
:104AB000030100F097B9F0BCBDE800414FF00000E1
:104AC00021497047FFFDFBF9F7F5F4F2F0EEEDEB4D
:104AD000E9E8E6E4E3E1E0DEDDDBDAD8D7D5D4D3FC
:104AE000D1D0CFCDCCCBCAC8C7C6C5C4C2C1C0BF48
:104AF000BEBDBCBBBAB9B8B7B6B5B4B3B2B1B0AF4E
:104B0000AEADACABAAA9A8A8A7A6A5A4A3A3A2A131
:104B1000A09F9F9E9D9C9C9B9A99999897979695EC
:104B200095949393929191908F8F8E8E8D8C8C8B88
:104B30008B8A898988888787868585848483838210
:104B4000828181800000FF070000F87F10F00042A2
:104B500048BF4042B0FA80F310FA03F10AD0C3F123
:104B60001D0303F580634FEA415002EB035202EB51
:104B7000D12170474FF000007047000051EA030C4C
:104B800017D41CF5801F58BFBCF5801F00F10680AC
:104B9000994218BF704708BF9042704707D711F578
:104BA000801F58BF13F5801F19D49942704789425E
:104BB00070471CF5801F08D5BCF5801FF7D58B42C8
:104BC00018BF704708BF824270474FF4001C1CEBAF
:104BD000410F38BF1CEB430F01D28B42704770B5B9
:104BE00000F0B2F8922449004FF000514FF080538A
:104BF000FFF747BEDFF848C170B51CEA111E1EBFA3
:104C00001CEA13159EEA0C0F95EA0C0F00F06F805A
:104C100081EA030423EA4C134EEAD47E21EA4C11C4
:104C200041F4801143F48013AE44A1FB024CA0FB7D
:104C30000365AEF17F7E361955EB0C05A1FB034CE5
:104C40004CF10003A0FB021C16EB0C06654153F16E
:104C50000003094218BF46F0010613F4007F0BD190
:104C60004FEA03314FEA0530340341EA155140EA77
:104C700016506FF003020AE04FEAC3214FEAC52045
:104C8000F40241EA555140EA56506FF0020202EB3D
:104C90002E4201EB025585EACE710AD05FEA440C40
:104CA00018BF24F0004450F1000041F1000120EA57
:104CB000D47040F2FE7C624500D270BDA84214BFA1
:104CC0004FF080444FF04044002E08BF0024BEF156
:104CD000806FA8BFA1F1C041BDE8704080F2828022
:104CE0004FF0000001F1C04101F0004170479EEA21
:104CF0000C0F0CEA131518BF95EA0C0F06D04FF0F5
:104D0000000081EA030E0EF0004170BD00F01CF8B7
:104D10008900013E00F007B800F009B84FEA430CE3
:104D20005FEA5C5C08D081EA030100F05BB84FEAFF
:104D3000410C5FEA5C5CF6D14FF00000014970471E
:104D40000000FF070000F87F0EF1020E2EF0030EA8
:104D50005EF8046B364205D4012A43EB030515F5D2
:104D6000001F12D8012841EB010C1CF5001F0CD8C4
:104D70000ED14FEAD17C15F5001F0CEB4C0C0CF159
:104D8000020C08BF4CEBD37C04E04FF0080C01E0B0
:104D90004FEAD37C0CEB4C0526FA05F606F0070625
:104DA000B6F1040C06D20EEB860CBDE870404CF058
:104DB000010C6047DFE80CF0090B02024FF00041E4
:104DC0004FF00000A1F5002170BD194610460128E2
:104DD00051EB010418BFD4F5001484BF002001F08A
:104DE000004170BD0808A0F500114FEA310170477D
:104DF00043004FEAD30C4FEA3C0C43401FBF40072F
:104E00000CF1605113F0FE4F70471CF0006F03D19E
:104E100000200CF0004170470CF0004343EA507052
:104E200010B540EACC0000F004F900BF0000009289
:104E30004FEA0001FFF7D6BF4FF000414FF00000EE
:104E4000A1F500217047401058BFC0F14040491003
:104E500058BFC1F140418142EFF30080704700002C
:104E6000C10DD1F19E0206DB4FEA002343F000435F
:104E700023FA02F07047004207D54FEA4001B1F132
:104E8000FE4F02D24FF00000704710B500F0D1F88D
:104E900049922480002070476FEA2000704700008C
:104EA000B0FA80F310FA03F2C3F19D030AD0D905DA
:104EB00001EB1220530638BF704700F1010008BF14
:104EC00020F001007047000050EA010C00F113804F
:104ED0001CF5000F58BFBCF5000F01D48842704785
:104EE00007D710F5000F58BF11F5000F15D48842F1
:104EF0007047894270471CF5000F04D5BCF5000FC0
:104F0000F7D5814270474FF0807C1CEB400F38BFD3
:104F10001CEB410F01D28142704710B500F089F8B7
:104F2000922449004FF000504FF08051FFF78BBFA3
:104F30004FF47F0C1CEAD0121EBF1CEAD11392EA78
:104F40000C0F93EA0C0F00F0478090EA010F48BF66
:104F500042F480724FF0004C4CEA00204CEA0121F0
:104F600002EB0302A0FB0113A2F50002002918BF07
:104F700043F001035B0028BF4FEA330342EB2242B8
:104F80005FEA132C4CEBC2502EBFBCEB436FB2F563
:104F90007C0F70474FEA036CBCF1004F08BF20F054
:104FA0000100B2F57C0F38BF70470BD582F0FF02CD
:104FB00012F5803FC8BF704700F1C040D8BF00F075
:104FC0000040704700F5000C5FEA4C0C48BF70478A
:104FD000B0F1C04000F073B890EA010F0CEAD113B1
:104FE00048BF42F48072624538BF634504D280EA0C
:104FF000010000F00040704710B500F01AF800BF43
:105000008900013E00F007B800F009B85FEA410CE2
:105010005FEA1C6C08D080EA010000F050B85FEA3B
:10502000400C5FEA1C6CF6D14FF00040A0F5800008
:1050300070470EF1020E2EF0030E5EF8044B244270
:1050400004D44FEA4102B2F17F4F11D84FEA400336
:10505000B3F17F4F0CD80ED14FEAD07CB2F17F4F25
:105060000CEB4C0C0CF1020C08BF4CEBD17C04E0B7
:105070004FF0080C01E04FEAD17C0CEB4C0324FA12
:1050800003F404F00704B4F1040C06D20EEB840C14
:10509000BDE810404CF0010C6047DFE80CF0070859
:1050A00002024FF00040A0F5800010BD084642000B
:1050B00018BFD2F1807288BF00F0004010BDFF2100
:1050C00041EAD050C005704751EA000C00F113804E
:1050D0001CF5000F58BFBCF5000F01D4814270478A
:1050E00007D711F5000F58BF10F5000F15D48142F6
:1050F0007047894270471CF5000F04D5BCF5000FBE
:10510000F7D5884270474FF0807C1CEB410F38BFC9
:105110001CEB400F01D28842704780EA010081EA0F
:10512000000180EA0100FFF7F8BE00004C510008C2
:10513000000000208C0000006C010008D85100081D
:105140008C000020340700008801000800000000E7
:10515000000000000000000000000000000000004F
:10516000000000000000000000000000000000003F
:10517000000000000000000000000000000000002F
:10518000000000000000000000000000000000001F
:10519000000000000000000000000000000000000F
:1051A00000000000000000000000000000000000FF
:1051B00000A24A04000000000000000001020304F5
:1051C00006070809000000000102030401020304AD
:0851D0000607080902040608A5
:0400000508000131BD
:00000001FF
